:020000040800F2
:100000000004002081020008E1020008E10200086B
:10001000E1020008E1020008E1020008000000001F
:10002000000000000000000000000000E1020008E5
:10003000E102000800000000E1020008E1020008FF
:10004000E1020008E1020008E1020008E102000804
:10005000E1020008E10200089D050008E102000835
:10006000E1020008E1020008E1020008E1020008E4
:10007000E1020008E1020008E1020008E1020008D4
:10008000E1020008E1020008E1020008E1020008C4
:10009000E1020008E1020008E1020008E1020008B4
:1000A000E1020008E1020008E1020008E1020008A4
:1000B000E1020008E1020008E1020008E102000894
:1000C000E1020008E1020008E1020008E102000884
:1000D000E1020008E1020008E1020008E102000874
:1000E000E1020008E1020008E1020008000000004F
:1000F0000000000000000000000000000000000000
:1001000000000000000000005FF808F180B500AFBB
:10011000154A154B1B6843F0010313601249124B3B
:100120005A68124B13404B600F4A0F4B1B6823F069
:10013000847323F4803313600B4A0B4B1B6823F446
:1001400080231360084A084B5B6823F4FE03536066
:10015000054B4FF41F029A6000F00CF8044B4FF06F
:1001600000629A6000BF80BD001002400000FFF8EE
:1001700000ED00E080B500AF00F002F800BF80BDE8
:1001800080B483B000AF00237B6000233B603A4A19
:10019000394B1B6843F480331360374B1B6803F4FF
:1001A00000333B607B6801337B603B68002B03D1ED
:1001B0007B68B3F5A06FF0D12F4B1B6803F40033BD
:1001C000002B02D001233B6001E000233B603B6831
:1001D000012B4BD1294A294B1B6843F010031360B4
:1001E000264A264B1B6823F003031360234A234B44
:1001F0001B6843F0020313601F4A1F4B5B68536088
:100200001D4A1D4B5B6853601B4A1B4B5B6843F4E4
:1002100080635360184A184B5B6823F47C13536067
:10022000154A154B5B6843F4E8135360124A124BAE
:100230001B6843F08073136000BF0F4B1B6803F013
:100240000073002BF9D00C4A0B4B5B6823F00303BF
:100250005360094A084B5B6843F00203536000BFD8
:10026000054B5B6803F00C03082BF9D100BF0C377A
:10027000BD4680BC704700BF001002400020024015
:1002800080B582B000AF114B7B60114B3B6007E043
:100290003B681A1D3A607A68111D796012681A600D
:1002A0003B680C4A9342F3D30B480C494FF00002D1
:1002B0008842B8BF40F8042BFADBFFF727FF00F0B5
:1002C00047F900BF0837BD4680BD00BF38080008A9
:1002D000000000200000002000000020000000209E
:1002E00080B400AFFEE700BF80B489B000AF786093
:1002F00039600023FB6100233B610023BB610023C5
:10030000FB6000237B610023BB603B68DB7803F06C
:100310000F03FB613B68DB7803F01003002B05D073
:100320003B689B781A46FB691343FB613B681B885B
:10033000DBB2002B44D07B681B687B610023BB6170
:1003400038E00122BB6902FA03F3FB603B681B88BB
:100350001A46FB6813403B613A69FB689A4226D112
:10036000BB699B00FB600F22FB6802FA03F3BB60D2
:10037000BB68DB437A6913407B61FA69FB6802FA68
:1003800003F37A6913437B613B68DB78282B05D143
:100390000122BB699A407B685A6108E03B68DB78C0
:1003A000482B04D10122BB699A407B681A61BB6962
:1003B0000133BB61BB69072BC3D97B687A691A60BB
:1003C0003B681B88FF2B46D97B685B687B610023F9
:1003D000BB613AE0BB690833012202FA03F3FB6018
:1003E0003B681B881A46FB6813403B613A69FB680F
:1003F0009A4227D1BB699B00FB600F22FB6802FA7F
:1004000003F3BB60BB68DB437A6913407B61FA6925
:10041000FB6802FA03F37A6913437B613B68DB787C
:10042000282B05D1BB69083301229A407B685A61A9
:100430003B68DB78482B05D1BB69083301229A4021
:100440007B681A61BB690133BB61BB69072BC1D9EA
:100450007B687A695A6000BF2437BD4680BC70470C
:1004600080B485B000AF78600B467B800023FB73BF
:100470007B689A687B881340002B02D00123FB73B2
:1004800001E00023FB73FB7B18461437BD4680BC9C
:10049000704700BF80B483B000AF78600B467B80AC
:1004A0007A887B681A6100BF0C37BD4680BC7047F4
:1004B00080B483B000AF78600B467B807A887B681D
:1004C0005A6100BF0C37BD4680BC704790B484B001
:1004D00000AF03460A46FB711346BB710023FB6065
:1004E000BB7903F003039B000F2202FA03F3FB60C6
:1004F0001649BB799B08DBB21846144ABB799B08A6
:10050000DBB2023352F82320FB68DB431A40831C22
:1005100041F823200D48BB799B08DBB21C460B4AEF
:10052000BB799B08DBB2023352F82320F979BB79FF
:1005300003F003039B0001FA03F31A43A31C40F8E2
:10054000232000BF1037BD4690BC7047000001401B
:1005500080B584B000AF00F04BF800F063F80623DC
:100560003B730123FB7300237B730023BB7307F1F1
:100570000C03184600F0FEF800210120FFF7A6FF4B
:1005800001237B600123BB7200233B7210237B722B
:100590003B1D184600F07CF8FEE700BF80B500AFB9
:1005A00001210648FFF75CFF0346002B02D000F054
:1005B00007F801E000F010F800BF80BD000C01401A
:1005C00080B500AF4FF400510248FFF771FF00BF44
:1005D00080BD00BF0010014080B500AF4FF4005156
:1005E0000248FFF757FF00BF80BD00BF0010014069
:1005F00080B582B000AF0121102000F02BF84FF43D
:100600000053BB801023FB710323BB713B1D1946B4
:100610000348FFF769FE00BF0837BD4680BD00BF35
:100620000010014080B582B000AF0121082000F029
:1006300011F80123BB802823FB710323BB713B1DF1
:1006400019460348FFF750FE00BF0837BD4680BD7E
:10065000000C014080B483B000AF78600B46FB70A3
:10066000FB78002B06D00949084B9A697B68134335
:100670008B6106E00549054B9A697B68DB431340B3
:100680008B6100BF0C37BD4680BC70470010024034
:1006900080B485B000AF78600023FB60344BFB6012
:1006A0007B689B79002B4FD03149314B1A687B68AE
:1006B0001B68DB4313400B602D492D4B5A687B6848
:1006C0001B68DB4313404B607B681B791A46FB6851
:1006D0001344FB60FB68FA6811687A6812680A4381
:1006E0001A602349224B9A687B681B68DB431340DE
:1006F0008B601F491E4BDA687B681B68DB43134025
:10070000CB607B685B79102B0ED11949184B9A6826
:100710007B681B6813438B601549154BDA687B684F
:100720001B681343CB601DE0114BFB607B685B795A
:100730001A46FB681344FB60FB68FA6811687A6824
:1007400012680A431A600DE07B681B791A46FB6841
:100750001344FB60FB68FA6811687A681268D24338
:100760000A401A6000BF1437BD4680BC704700BF06
:100770000004014080B487B000AF786000237B6143
:1007800000233B610F23FB607B68DB78002B3AD0B2
:10079000274BDB68DB4303F4E0631B0A7B617B6967
:1007A000C3F104033B61FA687B6922FA03F3FB603F
:1007B0007B685B781A463B6902FA03F37B617B68CE
:1007C0009B781A46FB6813407A6913437B617B6907
:1007D0001B017B61174A7B681B787969C9B2134496
:1007E0000A4683F80023134A7B681B785B09DBB257
:1007F00018467B681B7803F01F03012101FA03F3FD
:1008000042F820300FE00B497B681B785B09DBB2B4
:1008100018467B681B7803F01F0301229A4000F101
:10082000200341F8232000BF1C37BD4680BC704721
:0808300000ED00E000E100E032
:0400000508000000EF
:00000001FF
